{
  "contractName": "Verifier",
  "abi": [
    {
      "inputs": [
        {
          "internalType": "uint256[2]",
          "name": "input",
          "type": "uint256[2]"
        },
        {
          "components": [
            {
              "components": [
                {
                  "internalType": "uint256",
                  "name": "X",
                  "type": "uint256"
                },
                {
                  "internalType": "uint256",
                  "name": "Y",
                  "type": "uint256"
                }
              ],
              "internalType": "struct Verifier.G1Point",
              "name": "A",
              "type": "tuple"
            },
            {
              "components": [
                {
                  "internalType": "uint256[2]",
                  "name": "X",
                  "type": "uint256[2]"
                },
                {
                  "internalType": "uint256[2]",
                  "name": "Y",
                  "type": "uint256[2]"
                }
              ],
              "internalType": "struct Verifier.G2Point",
              "name": "B",
              "type": "tuple"
            },
            {
              "components": [
                {
                  "internalType": "uint256",
                  "name": "X",
                  "type": "uint256"
                },
                {
                  "internalType": "uint256",
                  "name": "Y",
                  "type": "uint256"
                }
              ],
              "internalType": "struct Verifier.G1Point",
              "name": "C",
              "type": "tuple"
            }
          ],
          "internalType": "struct Verifier.Proof",
          "name": "proof",
          "type": "tuple"
        }
      ],
      "name": "verify",
      "outputs": [
        {
          "internalType": "bool",
          "name": "",
          "type": "bool"
        }
      ],
      "stateMutability": "view",
      "type": "function",
      "constant": true
    },
    {
      "inputs": [
        {
          "internalType": "uint256[2]",
          "name": "input",
          "type": "uint256[2]"
        },
        {
          "internalType": "uint256[2]",
          "name": "a",
          "type": "uint256[2]"
        },
        {
          "internalType": "uint256[2][2]",
          "name": "b",
          "type": "uint256[2][2]"
        },
        {
          "internalType": "uint256[2]",
          "name": "c",
          "type": "uint256[2]"
        }
      ],
      "name": "verifyTx",
      "outputs": [
        {
          "internalType": "bool",
          "name": "",
          "type": "bool"
        }
      ],
      "stateMutability": "view",
      "type": "function",
      "constant": true
    }
  ],
  "bytecode": "0x608060405234801561001057600080fd5b506108bf806100206000396000f3fe608060405234801561001057600080fd5b50600436106100365760003560e01c806303da4d701461003b578063dc7d7b5c1461006b575b600080fd5b610055600480360381019061005091906106e4565b61009b565b6040516100629190610795565b60405180910390f35b61008560048036038101906100809190610749565b610421565b6040516100929190610795565b60405180910390f35b60006100a561042d565b6040518060400160405280866000600281106100ea577f4e487b7100000000000000000000000000000000000000000000000000000000600052603260045260246000fd5b602002015181526020018660016002811061012e577f4e487b7100000000000000000000000000000000000000000000000000000000600052603260045260246000fd5b60200201518152508160000181905250604051806040016040528060405180604001604052808760006002811061018e577f4e487b7100000000000000000000000000000000000000000000000000000000600052603260045260246000fd5b60200201516000600281106101cc577f4e487b7100000000000000000000000000000000000000000000000000000000600052603260045260246000fd5b6020020151815260200187600060028110610210577f4e487b7100000000000000000000000000000000000000000000000000000000600052603260045260246000fd5b602002015160016002811061024e577f4e487b7100000000000000000000000000000000000000000000000000000000600052603260045260246000fd5b602002015181525081526020016040518060400160405280876001600281106102a0577f4e487b7100000000000000000000000000000000000000000000000000000000600052603260045260246000fd5b60200201516000600281106102de577f4e487b7100000000000000000000000000000000000000000000000000000000600052603260045260246000fd5b6020020151815260200187600160028110610322577f4e487b7100000000000000000000000000000000000000000000000000000000600052603260045260246000fd5b6020020151600160028110610360577f4e487b7100000000000000000000000000000000000000000000000000000000600052603260045260246000fd5b602002015181525081525081602001819052506040518060400160405280846000600281106103b8577f4e487b7100000000000000000000000000000000000000000000000000000000600052603260045260246000fd5b60200201518152602001846001600281106103fc577f4e487b7100000000000000000000000000000000000000000000000000000000600052603260045260246000fd5b602002015181525081604001819052506104168682610421565b915050949350505050565b60006001905092915050565b6040518060600160405280610440610460565b815260200161044d61047a565b815260200161045a610460565b81525090565b604051806040016040528060008152602001600081525090565b604051806040016040528061048d6104a0565b815260200161049a6104a0565b81525090565b6040518060400160405280600290602082028036833780820191505090505090565b60006104d56104d0846107e1565b6107b0565b905080828560408602820111156104eb57600080fd5b60005b8581101561051b578161050188826105af565b8452602084019350604083019250506001810190506104ee565b5050509392505050565b600061053861053384610807565b6107b0565b9050808285602086028201111561054e57600080fd5b60005b8581101561057e578161056488826106cf565b845260208401935060208301925050600181019050610551565b5050509392505050565b600082601f83011261059957600080fd5b60026105a68482856104c2565b91505092915050565b600082601f8301126105c057600080fd5b60026105cd848285610525565b91505092915050565b6000604082840312156105e857600080fd5b6105f260406107b0565b90506000610602848285016106cf565b6000830152506020610616848285016106cf565b60208301525092915050565b60006080828403121561063457600080fd5b61063e60406107b0565b9050600061064e848285016105af565b6000830152506040610662848285016105af565b60208301525092915050565b6000610100828403121561068157600080fd5b61068b60606107b0565b9050600061069b848285016105d6565b60008301525060406106af84828501610622565b60208301525060c06106c3848285016105d6565b60408301525092915050565b6000813590506106de81610872565b92915050565b60008060008061014085870312156106fb57600080fd5b6000610709878288016105af565b945050604061071a878288016105af565b935050608061072b87828801610588565b92505061010061073d878288016105af565b91505092959194509250565b600080610140838503121561075d57600080fd5b600061076b858286016105af565b925050604061077c8582860161066e565b9150509250929050565b61078f8161082d565b82525050565b60006020820190506107aa6000830184610786565b92915050565b6000604051905081810181811067ffffffffffffffff821117156107d7576107d6610843565b5b8060405250919050565b600067ffffffffffffffff8211156107fc576107fb610843565b5b602082029050919050565b600067ffffffffffffffff82111561082257610821610843565b5b602082029050919050565b60008115159050919050565b6000819050919050565b7f4e487b7100000000000000000000000000000000000000000000000000000000600052604160045260246000fd5b61087b81610839565b811461088657600080fd5b5056fea26469706673582212205655d7c2af398362b84722ad05e52d3ef8a8dafa6639d64908e995f0ebe13b4f64736f6c63430008000033",
  "immutableReferences": {},
  "source": "// SPDX-License-Identifier: MIT\npragma solidity ^0.8.0;\n\ncontract Verifier {\n    struct G1Point {\n        uint X;\n        uint Y;\n    }\n\n    struct G2Point {\n        uint[2] X;\n        uint[2] Y;\n    }\n\n    struct Proof {\n        G1Point A;\n        G2Point B;\n        G1Point C;\n    }\n\n    // The prime q in the base field F_q for G1\n    uint256 constant q = 21888242871839275222246405745257275088548364400416034343698204186575808495617;\n\n    function negate(G1Point memory p) internal pure returns (G1Point memory) {\n        if (p.X == 0 && p.Y == 0) {\n            return G1Point(0, 0);\n        }\n        return G1Point(p.X, q - (p.Y % q));\n    }\n\n    function verify(\n        uint[2] memory input,\n        Proof memory proof\n    ) public view returns (bool) {\n        // Verification logic\n        // This is a placeholder for the actual verification logic\n        // You need to replace it with the actual proof verification logic\n        return true;\n    }\n\n    function verifyTx(\n        uint[2] memory input,\n        uint[2] memory a,\n        uint[2][2] memory b,\n        uint[2] memory c\n    ) public view returns (bool) {\n        Proof memory proof;\n        proof.A = G1Point(a[0], a[1]);\n        proof.B = G2Point([b[0][0], b[0][1]], [b[1][0], b[1][1]]);\n        proof.C = G1Point(c[0], c[1]);\n        return verify(input, proof);\n    }\n}\n",
  "sourcePath": "/Users/luissoares/projects/neon/solana-proofs/tests/contracts/Verifier.sol",
  "compiler": {
    "name": "solc",
    "version": "0.8.0+commit.c7dfd78e.Emscripten.clang"
  },
  "schemaVersion": "3.4.16",
  "updatedAt": "2024-07-28T09:45:18.101Z",
  "networkType": "ethereum",
  "devdoc": {
    "kind": "dev",
    "methods": {},
    "version": 1
  },
  "userdoc": {
    "kind": "user",
    "methods": {},
    "version": 1
  }
}