{
  "contractName": "Verifier",
  "abi": [
    {
      "inputs": [
        {
          "internalType": "uint256[]",
          "name": "input",
          "type": "uint256[]"
        },
        {
          "components": [
            {
              "components": [
                {
                  "internalType": "uint256",
                  "name": "X",
                  "type": "uint256"
                },
                {
                  "internalType": "uint256",
                  "name": "Y",
                  "type": "uint256"
                }
              ],
              "internalType": "struct Verifier.G1Point",
              "name": "A",
              "type": "tuple"
            },
            {
              "components": [
                {
                  "internalType": "uint256[2]",
                  "name": "X",
                  "type": "uint256[2]"
                },
                {
                  "internalType": "uint256[2]",
                  "name": "Y",
                  "type": "uint256[2]"
                }
              ],
              "internalType": "struct Verifier.G2Point",
              "name": "B",
              "type": "tuple"
            },
            {
              "components": [
                {
                  "internalType": "uint256",
                  "name": "X",
                  "type": "uint256"
                },
                {
                  "internalType": "uint256",
                  "name": "Y",
                  "type": "uint256"
                }
              ],
              "internalType": "struct Verifier.G1Point",
              "name": "C",
              "type": "tuple"
            }
          ],
          "internalType": "struct Verifier.Proof",
          "name": "proof",
          "type": "tuple"
        }
      ],
      "name": "verify",
      "outputs": [
        {
          "internalType": "bool",
          "name": "",
          "type": "bool"
        }
      ],
      "stateMutability": "nonpayable",
      "type": "function"
    },
    {
      "inputs": [
        {
          "internalType": "uint256[2]",
          "name": "a",
          "type": "uint256[2]"
        },
        {
          "internalType": "uint256[2][2]",
          "name": "b",
          "type": "uint256[2][2]"
        },
        {
          "internalType": "uint256[2]",
          "name": "c",
          "type": "uint256[2]"
        },
        {
          "internalType": "uint256[]",
          "name": "input",
          "type": "uint256[]"
        }
      ],
      "name": "verifyProof",
      "outputs": [
        {
          "internalType": "bool",
          "name": "",
          "type": "bool"
        }
      ],
      "stateMutability": "nonpayable",
      "type": "function"
    }
  ],
  "bytecode": "0x608060405234801561001057600080fd5b50611a40806100206000396000f3fe608060405234801561001057600080fd5b50600436106100365760003560e01c8063340dffcc1461003b578063c32e370e1461006b575b600080fd5b61005560048036038101906100509190611659565b61009b565b60405161006291906116fd565b60405180910390f35b610085600480360381019061008091906115dc565b610753565b60405161009291906116fd565b60405180910390f35b6000806040518060a0016040528060405180604001604052806000815260200160008152508152602001604051806040016040528060405180604001604052806000815260200160008152508152602001604051806040016040528060008152602001600081525081525081526020016040518060400160405280604051806040016040528060008152602001600081525081526020016040518060400160405280600081526020016000815250815250815260200160405180604001604052806040518060400160405280600081526020016000815250815260200160405180604001604052806000815260200160008152508152508152602001600186516101a591906117f2565b67ffffffffffffffff8111156101e4577f4e487b7100000000000000000000000000000000000000000000000000000000600052604160045260246000fd5b60405190808252806020026020018201604052801561021d57816020015b61020a61126d565b8152602001906001900390816102025790505b50815250905060005b8160800151518110156102a557604051806040016040528060008152602001600081525082608001518281518110610287577f4e487b7100000000000000000000000000000000000000000000000000000000600052603260045260246000fd5b6020026020010181905250808061029d906118ec565b915050610226565b5060006040518060400160405280600081526020016000815250905060005b8551811015610385576103708261036b85608001516001856102e691906117f2565b8151811061031d577f4e487b7100000000000000000000000000000000000000000000000000000000600052603260045260246000fd5b602002602001015189858151811061035e577f4e487b7100000000000000000000000000000000000000000000000000000000600052603260045260246000fd5b6020026020010151610ad9565b610b2a565b9150808061037d906118ec565b9150506102c4565b506103d58183608001516000815181106103c8577f4e487b7100000000000000000000000000000000000000000000000000000000600052603260045260246000fd5b6020026020010151610b2a565b90506000600467ffffffffffffffff81111561041a577f4e487b7100000000000000000000000000000000000000000000000000000000600052604160045260246000fd5b60405190808252806020026020018201604052801561045357816020015b61044061126d565b8152602001906001900390816104385790505b5090506000600467ffffffffffffffff811115610499577f4e487b7100000000000000000000000000000000000000000000000000000000600052604160045260246000fd5b6040519080825280602002602001820160405280156104d257816020015b6104bf611287565b8152602001906001900390816104b75790505b5090506104e28660000151610b89565b8260008151811061051c577f4e487b7100000000000000000000000000000000000000000000000000000000600052603260045260246000fd5b6020026020010181905250836020015181600081518110610566577f4e487b7100000000000000000000000000000000000000000000000000000000600052603260045260246000fd5b602002602001018190525082826001815181106105ac577f4e487b7100000000000000000000000000000000000000000000000000000000600052603260045260246000fd5b60200260200101819052508360400151816001815181106105f6577f4e487b7100000000000000000000000000000000000000000000000000000000600052603260045260246000fd5b6020026020010181905250856040015182600281518110610640577f4e487b7100000000000000000000000000000000000000000000000000000000600052603260045260246000fd5b602002602001018190525083606001518160028151811061068a577f4e487b7100000000000000000000000000000000000000000000000000000000600052603260045260246000fd5b60200260200101819052508360000151826003815181106106d4577f4e487b7100000000000000000000000000000000000000000000000000000000600052603260045260246000fd5b602002602001018190525085602001518160038151811061071e577f4e487b7100000000000000000000000000000000000000000000000000000000600052603260045260246000fd5b60200260200101819052506107338282610c47565b61074457600094505050505061074d565b60019450505050505b92915050565b600061075d6112ad565b6040518060400160405280876000600281106107a2577f4e487b7100000000000000000000000000000000000000000000000000000000600052603260045260246000fd5b60200201518152602001876001600281106107e6577f4e487b7100000000000000000000000000000000000000000000000000000000600052603260045260246000fd5b602002015181525081600001819052506040518060400160405280604051806040016040528088600060028110610846577f4e487b7100000000000000000000000000000000000000000000000000000000600052603260045260246000fd5b6020020151600060028110610884577f4e487b7100000000000000000000000000000000000000000000000000000000600052603260045260246000fd5b60200201518152602001886000600281106108c8577f4e487b7100000000000000000000000000000000000000000000000000000000600052603260045260246000fd5b6020020151600160028110610906577f4e487b7100000000000000000000000000000000000000000000000000000000600052603260045260246000fd5b60200201518152508152602001604051806040016040528088600160028110610958577f4e487b7100000000000000000000000000000000000000000000000000000000600052603260045260246000fd5b6020020151600060028110610996577f4e487b7100000000000000000000000000000000000000000000000000000000600052603260045260246000fd5b60200201518152602001886001600281106109da577f4e487b7100000000000000000000000000000000000000000000000000000000600052603260045260246000fd5b6020020151600160028110610a18577f4e487b7100000000000000000000000000000000000000000000000000000000600052603260045260246000fd5b60200201518152508152508160200181905250604051806040016040528085600060028110610a70577f4e487b7100000000000000000000000000000000000000000000000000000000600052603260045260246000fd5b6020020151815260200185600160028110610ab4577f4e487b7100000000000000000000000000000000000000000000000000000000600052603260045260246000fd5b60200201518152508160400181905250610ace838261009b565b915050949350505050565b610ae161126d565b60006040518060600160405280856000015181526020018560200151815260200184815250905060006040836060846007600019fa905080610b2257600080fd5b505092915050565b610b3261126d565b600060405180608001604052808560000151815260200185602001518152602001846000015181526020018460200151815250905060006040836080846006600019fa905080610b8157600080fd5b505092915050565b610b9161126d565b60008260000151148015610ba9575060008260200151145b15610bcc5760405180604001604052806000815260200160008152509050610c42565b6040518060400160405280836000015181526020017f30644e72e131a029b85045b68181585d2833e84879b9709143e1f593f00000018460200151610c119190611935565b7f30644e72e131a029b85045b68181585d2833e84879b9709143e1f593f0000001610c3c91906118a2565b81525090505b919050565b60008151835114610c8d576040517f08c379a0000000000000000000000000000000000000000000000000000000008152600401610c8490611718565b60405180910390fd5b6000835190506000600682610ca29190611848565b905060008167ffffffffffffffff811115610ce6577f4e487b7100000000000000000000000000000000000000000000000000000000600052604160045260246000fd5b604051908082528060200260200182016040528015610d145781602001602082028036833780820191505090505b50905060005b838110156111f957868181518110610d5b577f4e487b7100000000000000000000000000000000000000000000000000000000600052603260045260246000fd5b602002602001015160000151826000600684610d779190611848565b610d8191906117f2565b81518110610db8577f4e487b7100000000000000000000000000000000000000000000000000000000600052603260045260246000fd5b602002602001018181525050868181518110610dfd577f4e487b7100000000000000000000000000000000000000000000000000000000600052603260045260246000fd5b602002602001015160200151826001600684610e199190611848565b610e2391906117f2565b81518110610e5a577f4e487b7100000000000000000000000000000000000000000000000000000000600052603260045260246000fd5b602002602001018181525050858181518110610e9f577f4e487b7100000000000000000000000000000000000000000000000000000000600052603260045260246000fd5b602002602001015160000151600060028110610ee4577f4e487b7100000000000000000000000000000000000000000000000000000000600052603260045260246000fd5b6020020151826002600684610ef99190611848565b610f0391906117f2565b81518110610f3a577f4e487b7100000000000000000000000000000000000000000000000000000000600052603260045260246000fd5b602002602001018181525050858181518110610f7f577f4e487b7100000000000000000000000000000000000000000000000000000000600052603260045260246000fd5b602002602001015160000151600160028110610fc4577f4e487b7100000000000000000000000000000000000000000000000000000000600052603260045260246000fd5b6020020151826003600684610fd99190611848565b610fe391906117f2565b8151811061101a577f4e487b7100000000000000000000000000000000000000000000000000000000600052603260045260246000fd5b60200260200101818152505085818151811061105f577f4e487b7100000000000000000000000000000000000000000000000000000000600052603260045260246000fd5b6020026020010151602001516000600281106110a4577f4e487b7100000000000000000000000000000000000000000000000000000000600052603260045260246000fd5b60200201518260046006846110b99190611848565b6110c391906117f2565b815181106110fa577f4e487b7100000000000000000000000000000000000000000000000000000000600052603260045260246000fd5b60200260200101818152505085818151811061113f577f4e487b7100000000000000000000000000000000000000000000000000000000600052603260045260246000fd5b602002602001015160200151600160028110611184577f4e487b7100000000000000000000000000000000000000000000000000000000600052603260045260246000fd5b60200201518260056006846111999190611848565b6111a391906117f2565b815181106111da577f4e487b7100000000000000000000000000000000000000000000000000000000600052603260045260246000fd5b60200260200101818152505080806111f1906118ec565b915050610d1a565b506112026112e0565b602081602085026020850160006008600019f161121e57600080fd5b60008160006001811061125a577f4e487b7100000000000000000000000000000000000000000000000000000000600052603260045260246000fd5b6020020151141594505050505092915050565b604051806040016040528060008152602001600081525090565b604051806040016040528061129a611302565b81526020016112a7611302565b81525090565b60405180606001604052806112c061126d565b81526020016112cd611287565b81526020016112da61126d565b81525090565b6040518060200160405280600190602082028036833780820191505090505090565b6040518060400160405280600290602082028036833780820191505090505090565b600061133761133284611769565b611738565b9050808285604086028201111561134d57600080fd5b60005b8581101561137d5781611363888261147d565b845260208401935060408301925050600181019050611350565b5050509392505050565b600061139a6113958461178f565b611738565b905080828560208602820111156113b057600080fd5b60005b858110156113e057816113c688826115c7565b8452602084019350602083019250506001810190506113b3565b5050509392505050565b60006113fd6113f8846117b5565b611738565b9050808382526020820190508285602086028201111561141c57600080fd5b60005b8581101561144c578161143288826115c7565b84526020840193506020830192505060018101905061141f565b5050509392505050565b600082601f83011261146757600080fd5b6002611474848285611324565b91505092915050565b600082601f83011261148e57600080fd5b600261149b848285611387565b91505092915050565b600082601f8301126114b557600080fd5b81356114c58482602086016113ea565b91505092915050565b6000604082840312156114e057600080fd5b6114ea6040611738565b905060006114fa848285016115c7565b600083015250602061150e848285016115c7565b60208301525092915050565b60006080828403121561152c57600080fd5b6115366040611738565b905060006115468482850161147d565b600083015250604061155a8482850161147d565b60208301525092915050565b6000610100828403121561157957600080fd5b6115836060611738565b90506000611593848285016114ce565b60008301525060406115a78482850161151a565b60208301525060c06115bb848285016114ce565b60408301525092915050565b6000813590506115d6816119f3565b92915050565b60008060008061012085870312156115f357600080fd5b60006116018782880161147d565b945050604061161287828801611456565b93505060c06116238782880161147d565b92505061010085013567ffffffffffffffff81111561164157600080fd5b61164d878288016114a4565b91505092959194509250565b600080610120838503121561166d57600080fd5b600083013567ffffffffffffffff81111561168757600080fd5b611693858286016114a4565b92505060206116a485828601611566565b9150509250929050565b6116b7816118d6565b82525050565b60006116ca6018836117e1565b91507f70616972696e673a206c656e677468206d69736d6174636800000000000000006000830152602082019050919050565b600060208201905061171260008301846116ae565b92915050565b60006020820190508181036000830152611731816116bd565b9050919050565b6000604051905081810181811067ffffffffffffffff8211171561175f5761175e6119c4565b5b8060405250919050565b600067ffffffffffffffff821115611784576117836119c4565b5b602082029050919050565b600067ffffffffffffffff8211156117aa576117a96119c4565b5b602082029050919050565b600067ffffffffffffffff8211156117d0576117cf6119c4565b5b602082029050602081019050919050565b600082825260208201905092915050565b60006117fd826118e2565b9150611808836118e2565b9250827fffffffffffffffffffffffffffffffffffffffffffffffffffffffffffffffff0382111561183d5761183c611966565b5b828201905092915050565b6000611853826118e2565b915061185e836118e2565b9250817fffffffffffffffffffffffffffffffffffffffffffffffffffffffffffffffff048311821515161561189757611896611966565b5b828202905092915050565b60006118ad826118e2565b91506118b8836118e2565b9250828210156118cb576118ca611966565b5b828203905092915050565b60008115159050919050565b6000819050919050565b60006118f7826118e2565b91507fffffffffffffffffffffffffffffffffffffffffffffffffffffffffffffffff82141561192a57611929611966565b5b600182019050919050565b6000611940826118e2565b915061194b836118e2565b92508261195b5761195a611995565b5b828206905092915050565b7f4e487b7100000000000000000000000000000000000000000000000000000000600052601160045260246000fd5b7f4e487b7100000000000000000000000000000000000000000000000000000000600052601260045260246000fd5b7f4e487b7100000000000000000000000000000000000000000000000000000000600052604160045260246000fd5b6119fc816118e2565b8114611a0757600080fd5b5056fea26469706673582212205364812198c829cfbf2d8309ed5c0265979e84f0c87e0085cf72807af1b0b7cf64736f6c63430008000033",
  "immutableReferences": {},
  "source": "// SPDX-License-Identifier: MIT\npragma solidity ^0.8.0;\n\ncontract Verifier {\n    struct G1Point {\n        uint256 X;\n        uint256 Y;\n    }\n\n    struct G2Point {\n        uint256[2] X;\n        uint256[2] Y;\n    }\n\n    struct Proof {\n        G1Point A;\n        G2Point B;\n        G1Point C;\n    }\n\n    // The prime q in the base field F_q for G1\n    uint256 constant q = 21888242871839275222246405745257275088548364400416034343698204186575808495617;\n\n    // Verifying Key\n    struct VerifyingKey {\n        G1Point alpha;\n        G2Point beta;\n        G2Point gamma;\n        G2Point delta;\n        G1Point[] gamma_abc;\n    }\n\n    function negate(G1Point memory p) internal pure returns (G1Point memory) {\n        if (p.X == 0 && p.Y == 0) {\n            return G1Point(0, 0);\n        }\n        return G1Point(p.X, q - (p.Y % q));\n    }\n\n    function pairing(G1Point[] memory p1, G2Point[] memory q1) internal returns (bool) {\n        require(p1.length == q1.length, \"pairing: length mismatch\");\n\n        uint elements = p1.length;\n        uint inputSize = elements * 6;\n        uint[] memory input = new uint[](inputSize);\n\n        for (uint i = 0; i < elements; i++) {\n            input[i * 6 + 0] = p1[i].X;\n            input[i * 6 + 1] = p1[i].Y;\n            input[i * 6 + 2] = q1[i].X[0];\n            input[i * 6 + 3] = q1[i].X[1];\n            input[i * 6 + 4] = q1[i].Y[0];\n            input[i * 6 + 5] = q1[i].Y[1];\n        }\n\n        uint[1] memory out;\n        assembly {\n            if iszero(call(not(0), 8, 0, add(input, 0x20), mul(inputSize, 0x20), out, 0x20)) {\n                revert(0, 0)\n            }\n        }\n\n        return out[0] != 0;\n    }\n\n    function verify(\n        uint256[] memory input,\n        Proof memory proof\n    ) public returns (bool) {\n        // Define the verifying key (this is a placeholder; actual key needs to be set)\n        VerifyingKey memory vk = VerifyingKey(\n            G1Point(0, 0), // alpha\n            G2Point([uint256(0), uint256(0)], [uint256(0), uint256(0)]), // beta\n            G2Point([uint256(0), uint256(0)], [uint256(0), uint256(0)]), // gamma\n            G2Point([uint256(0), uint256(0)], [uint256(0), uint256(0)]), // delta\n            new G1Point[](input.length + 1)\n        );\n\n        // Set gamma_abc (this is a placeholder; actual values need to be set)\n        for (uint i = 0; i < vk.gamma_abc.length; i++) {\n            vk.gamma_abc[i] = G1Point(0, 0);\n        }\n\n        // Compute the linear combination vk_x\n        G1Point memory vk_x = G1Point(0, 0);\n        for (uint i = 0; i < input.length; i++) {\n            vk_x = addPoints(vk_x, scalarMul(vk.gamma_abc[i + 1], input[i]));\n        }\n        vk_x = addPoints(vk_x, vk.gamma_abc[0]);\n\n        // Verify the pairing\n        G1Point[] memory p1 = new G1Point[](4);\n        G2Point[] memory q1 = new G2Point[](4);\n\n        p1[0] = negate(proof.A);\n        q1[0] = vk.beta;\n        p1[1] = vk_x;\n        q1[1] = vk.gamma;\n        p1[2] = proof.C;\n        q1[2] = vk.delta;\n        p1[3] = vk.alpha;\n        q1[3] = proof.B;\n\n        if (!pairing(p1, q1)) return false;\n\n        return true;\n    }\n\n    function verifyProof(\n        uint256[2] memory a,\n        uint256[2][2] memory b,\n        uint256[2] memory c,\n        uint256[] memory input\n    ) public returns (bool) {\n        Proof memory proof;\n        proof.A = G1Point(a[0], a[1]);\n        proof.B = G2Point([b[0][0], b[0][1]], [b[1][0], b[1][1]]);\n        proof.C = G1Point(c[0], c[1]);\n        return verify(input, proof);\n    }\n\n    // Helper functions\n    function addPoints(G1Point memory p1, G1Point memory p2) internal view returns (G1Point memory r) {\n        uint[4] memory input = [p1.X, p1.Y, p2.X, p2.Y];\n        bool success;\n        assembly {\n            success := staticcall(not(0), 6, input, 0x80, r, 0x40)\n        }\n        require(success);\n    }\n\n    function scalarMul(G1Point memory p, uint256 s) internal view returns (G1Point memory r) {\n        uint[3] memory input = [p.X, p.Y, s];\n        bool success;\n        assembly {\n            success := staticcall(not(0), 7, input, 0x60, r, 0x40)\n        }\n        require(success);\n    }\n}\n",
  "sourcePath": "/Users/luissoares/projects/neon/solana-proofs/tests/contracts/Verifier.sol",
  "compiler": {
    "name": "solc",
    "version": "0.8.0+commit.c7dfd78e.Emscripten.clang"
  },
  "schemaVersion": "3.4.16",
  "updatedAt": "2024-07-29T08:41:53.626Z",
  "networkType": "ethereum",
  "devdoc": {
    "kind": "dev",
    "methods": {},
    "version": 1
  },
  "userdoc": {
    "kind": "user",
    "methods": {},
    "version": 1
  }
}