{
  "contractName": "Verifier",
  "abi": [
    {
      "anonymous": false,
      "inputs": [
        {
          "indexed": false,
          "internalType": "uint256",
          "name": "value",
          "type": "uint256"
        }
      ],
      "name": "LogValue",
      "type": "event"
    },
    {
      "inputs": [
        {
          "internalType": "uint256[2]",
          "name": "input",
          "type": "uint256[2]"
        },
        {
          "components": [
            {
              "components": [
                {
                  "internalType": "uint256",
                  "name": "X",
                  "type": "uint256"
                },
                {
                  "internalType": "uint256",
                  "name": "Y",
                  "type": "uint256"
                }
              ],
              "internalType": "struct Verifier.G1Point",
              "name": "A",
              "type": "tuple"
            },
            {
              "components": [
                {
                  "internalType": "uint256[2]",
                  "name": "X",
                  "type": "uint256[2]"
                },
                {
                  "internalType": "uint256[2]",
                  "name": "Y",
                  "type": "uint256[2]"
                }
              ],
              "internalType": "struct Verifier.G2Point",
              "name": "B",
              "type": "tuple"
            },
            {
              "components": [
                {
                  "internalType": "uint256",
                  "name": "X",
                  "type": "uint256"
                },
                {
                  "internalType": "uint256",
                  "name": "Y",
                  "type": "uint256"
                }
              ],
              "internalType": "struct Verifier.G1Point",
              "name": "C",
              "type": "tuple"
            }
          ],
          "internalType": "struct Verifier.Proof",
          "name": "proof",
          "type": "tuple"
        }
      ],
      "name": "verify",
      "outputs": [
        {
          "internalType": "bool",
          "name": "",
          "type": "bool"
        }
      ],
      "stateMutability": "nonpayable",
      "type": "function"
    },
    {
      "inputs": [
        {
          "internalType": "uint256[2]",
          "name": "a",
          "type": "uint256[2]"
        },
        {
          "internalType": "uint256[2][2]",
          "name": "b",
          "type": "uint256[2][2]"
        },
        {
          "internalType": "uint256[2]",
          "name": "c",
          "type": "uint256[2]"
        },
        {
          "internalType": "uint256[2]",
          "name": "input",
          "type": "uint256[2]"
        }
      ],
      "name": "verifyProof",
      "outputs": [
        {
          "internalType": "bool",
          "name": "",
          "type": "bool"
        }
      ],
      "stateMutability": "nonpayable",
      "type": "function"
    }
  ],
  "bytecode": "0x608060405234801561001057600080fd5b50610cc3806100206000396000f3fe608060405234801561001057600080fd5b50600436106100365760003560e01c8063dc7d7b5c1461003b578063f5c9d69e1461006b575b600080fd5b61005560048036038101906100509190610b23565b61009b565b6040516100629190610b7e565b60405180910390f35b61008560048036038101906100809190610abe565b610481565b6040516100929190610b7e565b60405180910390f35b60007ffcf771399d75a67a6d0e730ae98d34c40b6bfe6ebf8053b98ddf4da8c2706250836000600281106100f8577f4e487b7100000000000000000000000000000000000000000000000000000000600052603260045260246000fd5b602002015160405161010a9190610b99565b60405180910390a17ffcf771399d75a67a6d0e730ae98d34c40b6bfe6ebf8053b98ddf4da8c27062508360016002811061016d577f4e487b7100000000000000000000000000000000000000000000000000000000600052603260045260246000fd5b602002015160405161017f9190610b99565b60405180910390a17ffcf771399d75a67a6d0e730ae98d34c40b6bfe6ebf8053b98ddf4da8c27062508260000151600001516040516101be9190610b99565b60405180910390a17ffcf771399d75a67a6d0e730ae98d34c40b6bfe6ebf8053b98ddf4da8c27062508260000151602001516040516101fd9190610b99565b60405180910390a17ffcf771399d75a67a6d0e730ae98d34c40b6bfe6ebf8053b98ddf4da8c2706250826020015160000151600060028110610268577f4e487b7100000000000000000000000000000000000000000000000000000000600052603260045260246000fd5b602002015160405161027a9190610b99565b60405180910390a17ffcf771399d75a67a6d0e730ae98d34c40b6bfe6ebf8053b98ddf4da8c27062508260200151600001516001600281106102e5577f4e487b7100000000000000000000000000000000000000000000000000000000600052603260045260246000fd5b60200201516040516102f79190610b99565b60405180910390a17ffcf771399d75a67a6d0e730ae98d34c40b6bfe6ebf8053b98ddf4da8c2706250826020015160200151600060028110610362577f4e487b7100000000000000000000000000000000000000000000000000000000600052603260045260246000fd5b60200201516040516103749190610b99565b60405180910390a17ffcf771399d75a67a6d0e730ae98d34c40b6bfe6ebf8053b98ddf4da8c27062508260200151602001516001600281106103df577f4e487b7100000000000000000000000000000000000000000000000000000000600052603260045260246000fd5b60200201516040516103f19190610b99565b60405180910390a17ffcf771399d75a67a6d0e730ae98d34c40b6bfe6ebf8053b98ddf4da8c27062508260400151600001516040516104309190610b99565b60405180910390a17ffcf771399d75a67a6d0e730ae98d34c40b6bfe6ebf8053b98ddf4da8c270625082604001516020015160405161046f9190610b99565b60405180910390a16001905092915050565b600061048b610807565b6040518060400160405280876000600281106104d0577f4e487b7100000000000000000000000000000000000000000000000000000000600052603260045260246000fd5b6020020151815260200187600160028110610514577f4e487b7100000000000000000000000000000000000000000000000000000000600052603260045260246000fd5b602002015181525081600001819052506040518060400160405280604051806040016040528088600060028110610574577f4e487b7100000000000000000000000000000000000000000000000000000000600052603260045260246000fd5b60200201516000600281106105b2577f4e487b7100000000000000000000000000000000000000000000000000000000600052603260045260246000fd5b60200201518152602001886000600281106105f6577f4e487b7100000000000000000000000000000000000000000000000000000000600052603260045260246000fd5b6020020151600160028110610634577f4e487b7100000000000000000000000000000000000000000000000000000000600052603260045260246000fd5b60200201518152508152602001604051806040016040528088600160028110610686577f4e487b7100000000000000000000000000000000000000000000000000000000600052603260045260246000fd5b60200201516000600281106106c4577f4e487b7100000000000000000000000000000000000000000000000000000000600052603260045260246000fd5b6020020151815260200188600160028110610708577f4e487b7100000000000000000000000000000000000000000000000000000000600052603260045260246000fd5b6020020151600160028110610746577f4e487b7100000000000000000000000000000000000000000000000000000000600052603260045260246000fd5b6020020151815250815250816020018190525060405180604001604052808560006002811061079e577f4e487b7100000000000000000000000000000000000000000000000000000000600052603260045260246000fd5b60200201518152602001856001600281106107e2577f4e487b7100000000000000000000000000000000000000000000000000000000600052603260045260246000fd5b602002015181525081604001819052506107fc838261009b565b915050949350505050565b604051806060016040528061081a61083a565b8152602001610827610854565b815260200161083461083a565b81525090565b604051806040016040528060008152602001600081525090565b604051806040016040528061086761087a565b815260200161087461087a565b81525090565b6040518060400160405280600290602082028036833780820191505090505090565b60006108af6108aa84610be5565b610bb4565b905080828560408602820111156108c557600080fd5b60005b858110156108f557816108db8882610989565b8452602084019350604083019250506001810190506108c8565b5050509392505050565b600061091261090d84610c0b565b610bb4565b9050808285602086028201111561092857600080fd5b60005b85811015610958578161093e8882610aa9565b84526020840193506020830192505060018101905061092b565b5050509392505050565b600082601f83011261097357600080fd5b600261098084828561089c565b91505092915050565b600082601f83011261099a57600080fd5b60026109a78482856108ff565b91505092915050565b6000604082840312156109c257600080fd5b6109cc6040610bb4565b905060006109dc84828501610aa9565b60008301525060206109f084828501610aa9565b60208301525092915050565b600060808284031215610a0e57600080fd5b610a186040610bb4565b90506000610a2884828501610989565b6000830152506040610a3c84828501610989565b60208301525092915050565b60006101008284031215610a5b57600080fd5b610a656060610bb4565b90506000610a75848285016109b0565b6000830152506040610a89848285016109fc565b60208301525060c0610a9d848285016109b0565b60408301525092915050565b600081359050610ab881610c76565b92915050565b6000806000806101408587031215610ad557600080fd5b6000610ae387828801610989565b9450506040610af487828801610962565b93505060c0610b0587828801610989565b925050610100610b1787828801610989565b91505092959194509250565b6000806101408385031215610b3757600080fd5b6000610b4585828601610989565b9250506040610b5685828601610a48565b9150509250929050565b610b6981610c31565b82525050565b610b7881610c3d565b82525050565b6000602082019050610b936000830184610b60565b92915050565b6000602082019050610bae6000830184610b6f565b92915050565b6000604051905081810181811067ffffffffffffffff82111715610bdb57610bda610c47565b5b8060405250919050565b600067ffffffffffffffff821115610c0057610bff610c47565b5b602082029050919050565b600067ffffffffffffffff821115610c2657610c25610c47565b5b602082029050919050565b60008115159050919050565b6000819050919050565b7f4e487b7100000000000000000000000000000000000000000000000000000000600052604160045260246000fd5b610c7f81610c3d565b8114610c8a57600080fd5b5056fea264697066735822122033e5b6a3af49e15ef692164e74c58be0bb7b5dccd0c0dd887aa3f96b6b9fb71a64736f6c63430008000033",
  "immutableReferences": {},
  "source": "// SPDX-License-Identifier: MIT\npragma solidity ^0.8.0;\n\ncontract Verifier {\n    event LogValue(uint256 value);\n\n    struct G1Point {\n        uint X;\n        uint Y;\n    }\n\n    struct G2Point {\n        uint[2] X;\n        uint[2] Y;\n    }\n\n    struct Proof {\n        G1Point A;\n        G2Point B;\n        G1Point C;\n    }\n\n    // The prime q in the base field F_q for G1\n    uint256 constant q = 21888242871839275222246405745257275088548364400416034343698204186575808495617;\n\n    function negate(G1Point memory p) internal pure returns (G1Point memory) {\n        if (p.X == 0 && p.Y == 0) {\n            return G1Point(0, 0);\n        }\n        return G1Point(p.X, q - (p.Y % q));\n    }\n\n    function verify(\n        uint[2] memory input,\n        Proof memory proof\n    ) public returns (bool) {\n        // Verification logic\n        // This is a placeholder for the actual verification logic\n        emit LogValue(input[0]);\n        emit LogValue(input[1]);\n        emit LogValue(proof.A.X);\n        emit LogValue(proof.A.Y);\n        emit LogValue(proof.B.X[0]);\n        emit LogValue(proof.B.X[1]);\n        emit LogValue(proof.B.Y[0]);\n        emit LogValue(proof.B.Y[1]);\n        emit LogValue(proof.C.X);\n        emit LogValue(proof.C.Y);\n        return true;\n    }\n\n    function verifyProof(\n        uint[2] memory a,\n        uint[2][2] memory b,\n        uint[2] memory c,\n        uint[2] memory input\n    ) public returns (bool) {\n        Proof memory proof;\n        proof.A = G1Point(a[0], a[1]);\n        proof.B = G2Point([b[0][0], b[0][1]], [b[1][0], b[1][1]]);\n        proof.C = G1Point(c[0], c[1]);\n        return verify(input, proof);\n    }\n}\n",
  "sourcePath": "/Users/luissoares/projects/neon/solana-proofs/contracts/Verifier.sol",
  "compiler": {
    "name": "solc",
    "version": "0.8.0+commit.c7dfd78e.Emscripten.clang"
  },
  "schemaVersion": "3.4.16",
  "updatedAt": "2024-07-29T18:20:01.578Z",
  "networkType": "ethereum",
  "devdoc": {
    "kind": "dev",
    "methods": {},
    "version": 1
  },
  "userdoc": {
    "kind": "user",
    "methods": {},
    "version": 1
  }
}